:104CC8000A20002020696E6465783A3D2000202083
:104CD80074687265733A3D20002053554D5F4F4606
:104CE8003A3D20002020202073756D3A3D20002099
:104CF800205155414E543A3D200020202020206963
:104D08006E6465783A3D2000206368616E67653A95
:104D18003D20000A0020202044554D4D5930323A9C
:034D28003D20002B
:10487C00012D0003508080800353808080C1C3C110
:10488C00C7C144C148C145015600C1420121280499
:10489C008A00000000C149014F0001AD00109200D8
:1048AC0000000000000000000000000000000004F8
:1048BC00800000000001AA0001AC22018E080190CA
:1048CC00920188150189AA01AB160446112F0D66B9
:1048DC00019100018F80C146013600048400000064
:1048EC000004A60000000004A20000000004AE00BA
:1048FC00000000022B59FFC14A023800A9023C01FA
:0F490C0056022F026C023A0000014EC0012A0031
:10475E0090236675F005EF1245CCEE75F005A42595
:10476E0083F583229058FF7401F0853F3F854040CA
:10477E00229059FF7403F0E4F07484252AF8760031
:10478E0074A6252AF876002274462537F8E6F541F8
:10479E00744A2537F8E6F542229058FFE0F52222BA
:1047AE00F9E4F558F559895A22AF4F054FEF25E038
:1047BE002452F582E43423F583E493229059FF7456
:1047CE0006F074A6252AF87601229059FF7405F09A
:1047DE007484252AF8760122906CFF7403F022254A
:1047EE002AF8A607E52A25E025E0222540F54074A3
:1047FE00FF353FF53F2274532556F8A60674502513
:10480E0056F8A61622D3E5409407E53F64809481BE
:10481E00229012FFE0AB58AA59A95A227446252AB3
:10482E00F8E622E53F6480948022E493FC740193C1
:10483E00FDE53725E022E55625E024BBF822753943
:10484E00A9753C01753D56229014FF7402F090102C
:10485E00FF229001FFE556F022E53775F002A42203
:0E486E00901AFFE0F5262275B90175B90422F3
:104B4E00E52A64016006E52A64027049E52A24FE1E
:104B5E00600904700A7C5A7DFF80047C5B7DFF1225
:104B6E00482AFF14FE7412252AF8E6FBEED39B406A
:104B7E000B8D828C8374021247CF8019EFC39B502A
:104B8E000B8D828C8374011247DD80098D828C839C
:104B9E007403F0E4F0052AE52AB40414752A019092
:104BAE0054FFE0F53EE5357005AF3E124E5C05351F
:104BBE00E52AB4010375D804E52AB4020375D803B7
:084BCE00E52AB4030375D805C4
:014BD60022BC
:104C5D00752F0275306CE4F53AF53BE52D146010B7
:104C6D000470137538007539C1753C01753D3E22D0
:104C7D0075380002484CE52DC394FA400CE4F53824
:104C8D00F539753C01753DFF22E4F538F539C374EE
:104C9D00DB9539FF74019538FE12475EE493D39589
:104CAD002D400A0539E53970E5053880E1C374FFFB
:0B4CBD009539F53D74019538F53C2257
:104D2B00C3E530946CE52F9402400CE4F53AF53B67
:104D3B00F52DF53802484CE4F52DF5387539C1F5EC
:104D4B003AF53BC374E5953BFFE4953AFE90236738
:104D5B00124761D37401939530E493952F400A0564
:104D6B003BE53B70DE053A80DAC3743E953BF53D7F
:074D7B007401953AF53C229A
:03000300023DC4F7
:103DC400C0E0C0F0C083C082C0D075D000C000C0C5
:0D3DD40001C002C003C004C005C006C00746
:103DE1009040FFE0F5242020030240A7D249124869
:103DF1005614F07557000557E557B40AF99012FFAC
:103E0100E0F52054A39008FFF0E5205403FFF537B7
:103E11009001FFF0300408903CFF7410F080059091
:103E21003CFFE4F01248609012FFE0F525200513F5
:103E31002007079008FFEFF0801CEF44409008FF37
:103E4100F08013200709EF44209008FFF08007EF6E
:103E510044609008FFF0E525543E24FE604924E6C5
:103E6100603B24FC601A24F8602A24F0601C24FAC8
:103E710060302436703412486724BB1247AE802A62
:103E810012486724C11247AE802012486724B51238
:103E910047AE801674B225371247AE800D755B01AF
:103EA1008008755B028003755B00E525543E124571
:103EB100D83F51023EDA083F710A4008143F511CB5
:103EC1003EDA203FC2263EF6283F832C3FA8343EEF
:103ED100DA383F513E0000403320280612481F12B5
:103EE100453AAB58055AE55AAA597002055914F9D1
:103EF1001244FFF54120280612481F12453A124884
:103F0100231244FFF542E52564086003024033E5CE
:103F11003725E024BBF8E6FE08E6FF90236775F03D
:103F21000512476512483824B5F8A60408A605907D
:103F3100236912476112483824C1F8A60408A6056E
:103F410012475EE493FF74B22537F8A607024033A7
:103F51002028119001FFE55BF09012FFE09058FFDF
:103F6100F01248607541009058FFE0F5420240337D
:103F71002028099012FFE0F52D124C5D852D42029B
:103F810040332028199012FFE0F52F75570005578F
:103F9100E557B40AF99012FFE0F530124D2B852F49
:103FA1004185304202403330031120280E9012FF28
:103FB100E0FF74312537F8A607D246124796024032
:103FC100331247B7740193F5411247B7FE74019359
:103FD100F5828E83E0F542E54FB40A06754F008500
:103FE1003E42E542C394414007E542D394D840069E
:103FF100C20CD20D803CC20DE542C394805004D264
:104001000C802FC20C802B9012FFE0F5412028126A
:104011007557000557E557B40AF99012FFE0907003
:10402100FFF07557000557E557B40AF99070FFE0A6
:10403100F54230034FE52524C6602024347038E56D
:1040410036C3940E500A05369059FF7405F0800668
:104051009059FF7401F0124796802BE536C3940EF8
:10406100500A05369059FF7406F080069059FF7486
:1040710002F0124796800F7536009059FF7403F0D5
:10408100E4F08002C2469010FFE4F09012FF741534
:10409100F0E520F0E521F0E525F0E541F0E542F01D
:0640A1009014FFE543F05E
:1040A700D007D006D005D004D003D002D001D0006D
:0B40B700D0D0D082D083D0F0D0E03217
:10424A00E4F55CF55DEF540FF55C8D5DE52A6403DA
:10425A006038AE5CAF5DE4FCFD7805124588124714
:10426A00F22492F81245A71247F22494F8E6FF7452
:10427A00461247ED2495F8E6FF744A1247ED249258
:10428A00F81245B300000000800C9054FFE0FF7460
:10429A0046252AF8A60720450302434B30981C12EC
:1042AA004F83AD07124F58AD07EF24BB700DC244C0
:1042BA00C2457BFF7A2279A2120006E52A640360CE
:1042CA00737F0A124E8D7F46124E8D7F6F124E8D6E
:1042DA007F63124E8D7F75124E8D7F73124E8DAF96
:1042EA002A124F0F7F20124E8DE52A6401700D129B
:1042FA0043817F36124E8D7F20124E8DE52A64024D
:10430A00700D1243817F35124E8D7F20124E8D7FA4
:10431A0052124E8D7F3D124E8D7F30124E8D7F7818
:10432A00124E8D12482AFF124F0F7F2012434C1251
:10433A00439A80087F0A12434C12439A7F0A124E0C
:01434A008DE5
:10434B0022124E8D7F54124E8D7F65124E8D7F6DD6
:10435B00124E8D7F70124E8D7F20124E8D7F4E121E
:10436B004E8D7F6F124E8D7F72124E8D7F64124E6B
:10437B008D7F20024E8D7F4D124E8D7F45124E8DBF
:10438B007F2D124E8D7F31124E8D7F30024E8D7FE1
:10439B0030124E8D7F78124E8D9054FFE0F55EFFFC
:0343AB00024F0FAF
:0300330002495728
:10495700C0E0C0F0C083C082C0D075D000C000C026
:1049670001C002C003C004C005C006C00753C87F0A
:10497700ADD9AFDA12424A304403024A0630037C0B
:1049870030467CE52A6537707674A6252AF8E6FF57
:1049970070087484252AF9E7603A7431252AF8E605
:1049A700FE12482AFDD39E40147484252AF9E76035
:1049B7000612477F024A061247CA024A06EDC39EFD
:1049C700500DEF600512477F80351247D8803012AF
:1049D700477F802B7431252AF8E6FF12482AFED339
:1049E7009F40051247CA8017EEC39F50051247D84C
:1049F700800D9059FF7403F0E4F08003124B4ED002
:104A070007D006D005D004D003D002D001D000D003
:0A4A1700D0D082D083D0F0D0E0327E
:104ED600C2347F647E6412486E203404DEF8DFF448
:0C4EE6002034097BFF7A22798C12000630
:014EF200229D
:102FD100E4F562C238F56675D701124F9F124D8232
:102FE1007891E6F5CA788FE6F5CBE4F5CCF5CDF529
:102FF100C775C6021248757F0A124E8D7F4D124E5B
:103001008D7F45124E8D7F2D124E8D7F31124E8D4B
:103011007F30124E8D7F38124E8D7F20124E8D7F64
:1030210023124E8D756301E56324FE60111460184F
:103031002402701C85BC64AF64124F0F801285BDE1
:1030410064AF64124F0F800885BE64AF64124F0FE6
:103051000563E563C3940440CEE4F5C775C6041265
:1030610048757F20124E8D7F6C124E8D7F6F124EF0
:103071008D7F61124E8D7F64124E8D7F65124E8D54
:103081007F64124E8D7F20124E8D756301E563249E
:10309100FE601214601714601E2403702285BC6444
:1030A100123645801A85BD64123645801285BE648C
:1030B100AF64124F0F800885BF64AF64124F0F05D4
:1030C10063E563C3940540C57BFF7A15798B1200D4
:1030D100067F277E001236267F077E01123626D212
:1030E100A8C2AAD2AFD2AE75EFBE75D80843C80444
:1030F100906DFFE0F52330180302318A9040FF7490
:103101000AF09042FF7406F09043FF14F09041FFE3
:103111007464F09008FF7402F09068FFE4F0906925
:10312100FFF0906AFFF0906BFFF01247E612364F06
:10313100920B906CFF7401F07565029001FFE565DB
:10314100F0C23475636475646412486E203406D528
:1031510064F7D563F12034097BFF7A22798C120060
:10316100069028FFE4F0902BFF04F0902AFF74F4FE
:10317100F0902FFF7401F0902EFF74B0F0901AFFC1
:103181007401F0D565B50232657F0A124E8D7F5705
:10319100124E8D7F5F124E8D7F44124E8D7F6F12C6
:1031A1004E8D7F67124E8D7F43124E8D7F6E124E74
:1031B1008D7F74124E8D1247E6906DFFE4F0906C96
:1031C100FF04F0E4F5C775C607124875F563E563BA
:1031D10014601A1460271460342403703E788AA6A0
:1031E100BC7F20124E8DAFBC1235FE802E788BA68F
:1031F100BD7F20124E8DAFBD1235FE801E788CA68C
:10320100BE7F20124E8DAFBE123606800E788DA67F
:10321100BF7F20124E8DAFBF1236060563E563C333
:10322100940440AA906CFF7401F0788A12459BEFD8
:103231002401FFE43EFEE43DFDE43CFC788A1245B6
:10324100A7E4F5C775C60775B901788DE6F5BF180E
:10325100E6F5BE18E6F5BD18E6F5BC75B90575B914
:103261000275B9041247A71247E67401F0E4F55656
:10327100309846124F838F61124F588F61E561B4C8
:103281004D0312363AE561B453061247E612363A57
:10329100E561B44C091247E675EFBC75D805E561E7
:1032A100B454081247E6D245120036E561B45A0219
:1032B100D243E561B45802C243304961C2497BFF40
:1032C1007A22799A1200067F0A124E8D124856E42C
:1032D100F0F564E4F5660566E566B40AF99012FF57
:1032E100E0F567FF12360E0564E564C3940640E31A
:1032F1007F0A124E8D7F1512360EAF20123632AF75
:1033010021123632AF25124F0F7F20124E8DAF4161
:10331100124F0F7F20124E8DAF42124F0F30060E0B
:10332100204A0912364F920BD24A8002C24A1248F1
:1033310060C23012486E2030030235DF300209E5E9
:1033410037655670030235CEC2427F0A124E8DAFE9
:1033510056124F0F7F3A124E8D304305124BD780D4
:1033610006124FB385171674532556F8E6FFC3139B
:10337100FFC3E5169FFF74502556F8E6FEC313FD03
:10338100C3EF9DC364809488400D12480474532593
:1033910056F8E6F5168003124804850E0C124844CF
:1033A100E6F53F08E6F5407BFF7A4C79CB123ACA45
:1033B100AF40AE3F124E2A7BFF7A4C79D6123ACA01
:1033C100AF167E00124E2A7BFF7A4C79E1123ACA7F
:1033D100AF0C7E00124E2A7BFF7A4C79EC123ACA6E
:1033E100AF11AE10124E2A7BFF7A4C79F7123ACA0E
:1033F1007FF07E2D124E2A7BFF7A4C79C81200068F
:10340100E516B4FF14304311E50CD3941E40057545
:103411002EE8805D752EF4805830434DE556B40298
:103421001EE516F4600FE511B4FF0AE510B4FF05BF
:10343100752EF4803CE516902D6693F52E8032E5CD
:1034410016F4601BE511B4FF16E510B4FF11E50C8D
:10345100D3941E4005752EE88017752EF48012E571
:1034610016902D6693F52E8008E516902E6693F53D
:103471002EAF2EEF3395E0FEEF2540F540EE353FC0
:10348100F53F1236167BFF7A4D7910123ACAAF2EEC
:10349100EF3395E0FE124E2A7BFF7A4D791B120025
:1034A10006124844E6FC08E6FDC3E5409DFFE53F02
:1034B1009CA2E713FEEF132DF540EE3CF53FE556D8
:1034C10014604914700302355024026003023590E0
:1034D100C3E5409416124831500E1247A72011053A
:1034E1001247758003124778D3E540940D124818AE
:1034F10050030235901247A720100B7402F0746636
:103501001247F902359012477802359090C1FFE0D9
:10351100F544D394104006124772023590C3E5403A
:103521009427124831500E1247A7201305124775F0
:10353100800312477812481340551247A720120AF8
:103541007402F0747A1247F98045124778804090EE
:10355100C2FFE0F545D3941040051247728030C395
:10356100E540941B124831500E1247A72015051251
:103571004775800312477812481340131247A7205A
:10358100140A7402F074461247F980031247787BDB
:10359100FF7A4D791D123ACAAF457E00124E2AD3E9
:1035A100E540953DE53C6480F8E53F64809840083E
:1035B100853C3F853D40800BC31248315005E4F501
:1035C1003FF540124844A63F08A6408002D242126D
:1035D1004ED61236161243AE901AFF7480F0901A2E
:1035E100FF7401F0304B05D2451200360556C3E594
:0D35F10056648094835003023271023265EB
:1035FE00124F0F7F20024E8D124F0F7F20024E8DE5
:10360E00124F0F7F20024E8D7BFF7A4D7902123AB8
:10361E00CAAF40AE3F024E2A124E2A7BFF7A4C7939
:10362E00C8020006124F0F7F20024E8D75EFBC753B
:10363E00D805D245020036AF64124F0F7F2E024ED0
:01364E008DEE
:0B4F9400FFC454F0AB7BAA7CA97D2277
:0A4F9F00759E83759D0975985222D6
:104EF3008F7DC3E57D6480948A5008E57D2430FF6F
:0C4F0300024E8DE57D2437FF124E8D22FA
:104F0F008F7BE57B7804A2E713D8FB540FFF124E7B
:094F1F00F3E57B540FFF024EF391
:104E2A008E7B8F7CE57B7804A2E713D8FB124E5663
:104E3A00E57B124E56E57C7804A2E713D8FB540FA3
:104E4A00FF124EF3E57C540FFF024EF3540FFF029C
:024E5A004EF315
:064A21008B7B8A7C897D7D
:104A2700124AB04009D3E57E648094C640037F00F4
:104A370022D3E57E648094B9500CE57E24D0124FD2
:104A47009412453A8018C3E57E648094C1400CE512
:104A57007E24C9124F9412453A80037F0022124ADE
:104A6700B04009D3E57E648094C640037F0022D31B
:104A7700E57E648094B95011124F981244FFFFE508
:104A87007E24D04F12453A801DC3E57E648094C1D1
:104A97004011124F981244FFFFE57E24C94F12457B
:084AA7003A80037F00227F0129
:104AAF0022124F838F7E124F588F7EC3E57E648014
:034ABF0094B0228E
:10158B000A094261726B204669726D776172652040
:10159B007665722E322E3032202032302E30322EA3
:1015AB00323031350A0970726F636573736F722055
:1015BB003A20414475433834320A09636F6D7069C0
:1015CB006C657220203A204B65696C206D6B5669F7
:1015DB0073696F6E322056322E313220437835319B
:1015EB000A09646576656C6F706564206279204BBF
:1015FB002E526F676174636865760A096D6F646953
:10160B00666965642020627920412E567A6865737D
:10161B006863680A096D6F64696669656420206296
:10162B007920492E4665646F726F76004445000A37
:10163B00000A0943563030202D20537769746368B4
:10164B00204F4E204E4F5244313920202857696489
:10165B00652020206669656C64290A094356303180
:10166B00202D20537769746368204F4E204E4F52C4
:10167B004433303020284E6172726F772066696573
:10168B006C64290A0943563032202D205377697434
:10169B006368204F4E204E4F524437352020284D43
:1016AB006964646C65206669656C64290A09434842
:1016BB003030202D20537769746368204F4E204EB5
:1016CB004F52443139202028576964652020206609
:1016DB0069656C64290A0943483031202D20537702
:1016EB0069746368204F4E204E4F52443330302084
:1016FB00284E6172726F77206669656C64290A09DE
:10170B0043483032202D20537769746368204F4E45
:10171B00204E4F5244373509284D6964646C65205F
:10172B006669656C64290A0943543030202D2062A8
:10173B00697435203D20302C2062697437203D20A0
:10174B00300A0943543031202D2062697435203D15
:10175B0020302C2062697437203D20310A09435414
:10176B003032202D2062697435203D20312C2062CF
:10177B00697437203D20300A0943543033202D2023
:10178B0062697435203D20312C2062697437203D0D
:10179B0020310A0931202020202D204F6E65207327
:1017AB00746570206F66206175746F6D6174206F46
:1017BB006620746865206C6967687420286176619F
:1017CB00696C61626C6520756E646572206465621C
:1017DB007567206D6F6465290A094D202020202D27
:1017EB00206368616E6765206D6F64652061757439
:1017FB006F6D617420746F20646562756720616E14
:10180B006420766963652076657273610A09773C9B
:10181B0061613E3C64643E20092D205772697465FA
:10182B002042595445203C64643E20746F2046503E
:10183B00474120402061646472657373203C616191
:10184B003E0A09723C61613E09092D2052656164B3
:10185B0020425954452066726F6D204650474120F7
:10186B00402061646472657373203C61613E0A09B8
:10187B0041532020202D20416463206D6F6465202F
:10188B006175746F20666F63757365732053746F26
:10189B00700A0941522020202D20416463206D6F76
:1018AB006465206175746F20666F63757365732053
:1018BB0052756E0A09094520202D20756E646572DC
:1018CB002072756E696E6720416463206D6F64656D
:1018DB003A206175746F20666F637573657320456D
:1018EB007869740A0941452020202D206578697498
:1018FB00206465627567206D6F6465206164632089
:10190B00776974686F75742072756E6E6967206184
:10191B0075746F20666F63757365730A09703F206A
:10192B0020202D2068656C7020666F7220706172AC
:10193B00616D6574726573206D616E75616C20638A
:10194B0068616E67696E670A09733F2020202D203E
:10195B0068656C7020666F722073657474696E674E
:10196B0073206F6620612063616D65726127732040
:10197B00706172616D65747265730A09663F202030
:10198B00202D20666F63757320706172616D6574B5
:10199B007265732073657474696E6773000A09202E
:1019AB0070652B202020506172616D65746572200B
:1019BB004578706F7375726520696E7465677261B7
:1019CB006C20696E6372656D656E742076616C75E3
:1019DB00650A092070652D202020506172616D65AC
:1019EB00746572204578706F7375726520696E74BB
:1019FB00656772616C2064656372656D656E7420DA
:101A0B0076616C75650A092070672B202020506168
:101A1B0072616D65746572204761696E20696E63D2
:101A2B0072656D656E742076616C75650A09207040
:101A3B00672D202020506172616D6574657220479F
:101A4B0061696E2064656372656D656E7420766185
:101A5B006C75650A092070662B202020506172611D
:101A6B006D65746572204672616D65206578706F67
:101A7B007375726520696E6372656D656E74207621
:101A8B00616C75650A092070662D202020506172EB
:101A9B00616D65746572204672616D652065787045
:101AAB006F737572652064656372656D656E742006
:101ABB0076616C75650A097073722B20202050615A
:101ACB0072616D65746572205368757474657220EC
:101ADB00526F75676820696E6372656D656E7420F1
:101AEB0076616C75650A097073722D202020506128
:101AFB0072616D65746572205368757474657220BC
:101B0B00526F7567682064656372656D656E7420CE
:101B1B0076616C75650A0920706E2B202020506150
:101B2B0072616D65746572204E6172726F7720669B
:101B3B0069656C6420666F63757320696E6372658B
:101B4B006D656E742076616C756520736C6F776C48
:101B5B0079200A0920706E2D202020506172616D52
:101B6B0065746572204E6172726F77206669656C61
:101B7B006420666F6375732064656372656D656E53
:101B8B00742076616C756520736C6F776C790A09BC
:101B9B0020706E2A202020506172204E6172726F6D
:101BAB0077206669656C6420666F63757320696E58
:101BBB006372656D656E742076616C756520666108
:101BCB007374200A0920706E2F2020205061722020
:101BDB004E6172726F77206669656C6420666F6305
:101BEB0075732064656372656D656E742076616CC8
:101BFB00756520666173740A0920706E6E20202053
:101C0B00506172204E6172726F77206669656C64E9
:101C1B0020666F63757320696E6372656D656E7494
:101C2B002076616C756520636F6E74696E756520C7
:101C3B006E6561720A0920706E66202020506172F9
:101C4B00204E6172726F77206669656C6420666FD7
:101C5B006375732064656372656D656E7420766160
:101C6B006C756520636F6E74696E75652066617245
:101C7B000A0920706E3D20202073746F7020636FF3
:101C8B006E74696E7565202F20726571756573743E
:101C9B0020706F74656E74696F6D65746572206406
:101CAB00617461204E6172726F770A0920706D2B1F
:101CBB00202020506172616D65746572204D6964DE
:101CCB00646C65206669656C6420666F6375732050
:101CDB00696E6372656D656E742076616C756520D7
:101CEB00736C6F776C792073706565640A0920706B
:101CFB006D2D202020506172616D65746572204DD1
:101D0B006964646C65206669656C6420666F6375D5
:101D1B00732064656372656D656E742076616C7596
:101D2B006520736C6F776C792073706565640A0935
:101D3B0020706D2A202020506172204D6964646CE4
:101D4B0065206669656C6420666F63757320696EC8
:101D5B006372656D656E742076616C756520666166
:101D6B0073742073706565640A0920706D2F2020D1
:101D7B0020506172204D6964646C65206669656CE6
:101D8B006420666F6375732064656372656D656E41
:101D9B00742076616C756520666173742073706551
:101DAB0065640A0920706D6E202020506172204DF1
:101DBB006964646C65206669656C6420666F637525
:101DCB007320696E6372656D656E742076616C75D8
:101DDB006520636F6E74696E756520746F206E6518
:101DEB0061720A0920706D66202020506172204DAF
:101DFB006964646C65206669656C6420666F6375E5
:101E0B00732064656372656D656E742076616C75A5
:101E1B006520636F6E74696E756520746F206661E3
:101E2B00720A0920706D3D20202073746F7020633F
:101E3B006F6E74696E7565202F726571756573743D
:101E4B0020706F74656E74696F6D65746572206454
:101E5B00617461204D6964646C65200A092070749B
:101E6B0020202020726571756573742074656D7008
:101E7B006572617475726520646174612028742DBC
:101E8B006E657874207265717565737429000A0923
:101E9B00737372763C64643E3C64643E2053657499
:101EAB0020506172616D657465722053687574742E
:101EBB00657220526F7567682056616C75650A09EB
:101ECB007373726C3C64643E3C64643E2053657473
:101EDB0020506172616D65746572205368757474FE
:101EEB00657220526F756768204C696D6974207636
:101EFB00616C75650A09736776203C64643E3C64CB
:101F0B00643E2053657420506172616D6574657217
:101F1B00204761696E2056616C75650A0973657699
:101F2B00203C64643E3C64643E20536574205061E5
:101F3B0072616D65746572204578706F737572652B
:101F4B0020696E74656772616C2076616C75650AC9
:101F5B0009736E693C64643E202020202020536569
:101F6B007420506172616D65746572204E6172727E
:101F7B006F7720496E66696E6974790A09736E65AD
:101F8B003C64643E20202020202053657420506147
:101F9B0072616D65746572204E6172726F77204548
:101FAB0072726F720A09736D693C64643E20202063
:101FBB0020202053657420506172616D65746572C9
:101FCB00204D6964646C6520496E66696E6974792D
:101FDB000A09736D653C64643E2020202020205349
:101FEB00657420506172616D65746572204D696412
:101FFB00646C65204572726F720A09736D6F2020D5
:10200B002020202020202020536574204D696464FB
:10201B006C65204F70656E202066696C7465720A62
:10202B0009736D6320202020202020202020536561
:10203B0074204D6964646C6520436C6F7365206616
:10204B00696C7465720A09736D693C64643E202087
:10205B0020202020536574204D6964646C652049F1
:10206B006E66696E69747920746F3C64643E0A090C
:10207B00736E6F2020202020202020202053657499
:10208B00204E6172726F77204F70656E20206669EB
:10209B006C7465720A09736E632020202020202047
:1020AB00202020536574204E6172726F7720436C31
:1020BB006F73652066696C7465720A09736E693C8F
:1020CB0064643E202020202020536574204E6172D2
:1020DB00726F7720496E66696E69747920746F3CF4
:1020EB0064643E0A09736E653C64643E20202020C4
:1020FB00202053657420416E616C6F674572726F5F
:10210B007220746F3C64643E20666F7220426F7461
:10211B0068206368616E6E656C0A0973776F2020A7
:10212B0020202020202020205365742057696465CF
:10213B002020204F70656E202066696C7465720AD2
:10214B000973776320202020202020202020536536
:10215B00742057696465202020436C6F736520667B
:10216B00696C7465720A0973616F2020202020202E
:10217B002020202053657420416C6C206368616EB5
:10218B006E656C204F70656E202066696C7465728D
:10219B00730A097361632020202020202020202037
:1021AB0053657420416C6C206368616E6E656C20A6
:1021BB00436C6F73652066696C746572730A09737F
:1021CB00633C64643E202020202020205365742033
:1021DB00766965772026206374726C20746F206398
:1021EB0068616E6E656C20233C64643E0A097364FF
:1021FB0020202020202020202020205365742064C4
:10220B00656661756C7420636F6E7374616E747345
:10221B0020666F7220666F63757365730A0973238B
:10222B002020202020202020202020536574206394
:10223B00616D657261204D452D31303820536572CB
:10224B0069616C204E756D6265720A09736C202092
:10225B00202020202020202020536574206C6F61CB
:10226B006465642064617465000A5E4572726F7206
:10227B0007000A48697374206E6F7420722D64799D
:10228B00000A52414D206E6F7420722D6479000A42
:10229B00525334383521000A6578697420616463C0
:1022AB0020646562756721000A2073696E676C652F
:1022BB0020414443206D6F646520325F343B2061C5
:1022CB006463206368616E6E656C203321000A20A5
:1022DB0073696E676C6520414443206D6F646520A4
:1022EB00315F353B20616463206368616E6E656CA2
:1022FB00203421000A2073696E676C6520414443CA
:10230B00206D6F64652074656D702073656E7365E9
:10231B003B20616463206368616E6E656C203521C0
:10232B000073696E676C6520414443206D6F646573
:10233B002100636F6E74696E756F75732041444332
:07234B00206D6F64652100A5
:1040C2000A656E746572206E756D626572206F6628
:1040D20020627974657320666F72206C6F61642050
:1040E200746F2072656365697665720A000A656E8F
:1040F200746572206E756D626572206F66206279DA
:1041020074657320666F72206C6F616420746F2017
:104112007472616E736665720A000A656E74657206
:10412200206E756D626572206F66206279746573A8
:1041320020666F72206C6F616420746F20657272EA
:104142006F7220636F756E7465720A000A6C6F611C
:1041520064696E672052414D2074782E2E2E0A001B
:104162000A62797465000A786F7220627974653D1B
:10417200000A72656164696E672052414D2074784D
:104182002E2E2E0A000A6C6F6164696E67205241FE
:104192004D2072782E2E2E0A000A61646320646517
:1041A2006275672E2E2E0A000A41444320617574FF
:1041B2006F2073746F702E2E2E0A000A4144432022
:1041C2006175746F2072756E2E2E2E0A000A546865
:1041D2006572652061726520746872656520636826
:1041E200616E6E616C733A202330302C20233031A3
:1041F2002C20233032000A6761696E2072616E677B
:10420200653A2034333220746F203130323321004A
:104212000A6578706F737572652072616E67653AB0
:10422200203020746F2035313121000A7368757493
:104232007465722072616E67653A203020746F2057
:0842420036323021000D0A00A4
:08491B00C14B0419000000006B
:10463B00AB78AA79A97A12454CF58285F08322F5DD
:10464B00BF75B90575B90275B90422E55625E02485
:10465B00B5F822E55625E024C1F8228573C785718C
:10466B00C675B90175B9042275F005EF1245CCEE8C
:10467B0075F005A42583F583E49322E55625E02404
:10468B00BBF822E6902BFFF0E55625E024B622F985
:10469B00D3E7940019E76480948022AFA3124E0DE8
:1046AB009058FF7402F0AFA3024E0DE55675F00261
:1046BB00A422E6902FFFF0E55625E024C222056BDD
:1046CB00E56BC3940522F09008FFF085EF6F85D85A
:1046DB007022E4F5C775C60175B90122E4F5C7F57B
:1046EB00C675B901229008FFE4F09001FFF07D043C
:1046FB0022E6FE08E6FFC3EE6480948022F0901061
:10470B00FFE4F09011FFF022F09014FF7402F022FE
:10471B00AB68AA69A96A1244FFFF229008FF7401D3
:10472B00F09001FFF0229008FF7402F09001FFF06F
:10473B00223EFED3EF94FFEE94012274B22556F87D
:10474B00E6228573C78571C622F9C3E794FF19E783
:03475B0064802255
:1043AE00C2AF124686E6FE08E6FF2042169023674D
:1043BE0075F005124677FC740193FD124656A6045D
:1043CE0008A605124693F9D3E7953019E7952F40C5
:1043DE0017124656A62F08A630E53B2FFFE53A12D8
:1043EE00473C40047E017FFF20420E90236612461A
:1043FE0073FD74B22556F8A605124746D3952D4087
:10440E0011A62DE5392FFFE53812473C40047E01F9
:10441E007FFF1247469028FFF012465612468EF83E
:10442E00E6902AFFF0204213902369124673FE7421
:10443E000193FF12465EA60608A60712465E1246B6
:10444E00BDF8E6902EFFF07F201244F77F20124E2B
:10445E008D7F20124E8D7F20124E8D7F66124E8DD7
:10446E007F72124E8D7F61124E8D7F6D124E8D7F3B
:10447E00651244E5124746FF7E00124E2A7F201237
:10448E004E8D7F73124E8D7F68124E8D7F75124E3C
:10449E008D7F741244E5124656E6FE08E6FF124E74
:1044AE002A7F20124E8D7F67124E8D7F61124E8DA8
:1044BE007F69124E8D7F6E124E8D7F3A124E8D7F1A
:1044CE003D1244F712465EE6FE08E6FF124E2A7FC4
:0644DE000A124E8DD2AF60
:1044E40022124E8D7F3A124E8D7F3D124E8D7F20CB
:0B44F400024E8D124E8D7F20024E8D77
:104F280012465EE6FE08E6FF124E2A12465E12465A
:084F3800BDF8E6902EFFF02207
:104F4000124656E6FE08E6FF124E2A124656124652
:084F50008EF8E6902AFFF02222
:104DBF008F7F8E7E8D7D8C7CE4FFFEFDFCAB7FAA0A
:104DCF007EA97DA87CC3124577601AE57F24FFF585
:104DDF007FE57E34FFF57EE57D34FFF57DE57C34A0
:064DEF00FFF57C80D322D9
:104DF5009008FFE4F09001FFF07D04AFA3124E0D83
:084E05009058FF7401F0AFA307
:104E0D00E4F5A1F5A2F5A375A109EFB5A308E5A3F6
:0D4E1D00C39D500880F8E5A2C39D40FA2215
:104D8200E4F5C7F5C612466C78ACA6BC788EA6BD13
:104D92007890A6BE78AAA6BFF5C775C60112466C62
:104DA20078ABA6BC7888A6BD7889A6BEF5C775C6BD
:0D4DB2000312466C788FA6BC7891A6BD2236
:104F6F008F7B7FFF7E007D007C00124DBF75EFBCF5
:044F7F00857BD82234
:100036007572FF7574FF757714757800757900759C
:100046007A717BFF7A16793A120006124D822045A4
:1000560003020F727F0A124E8D7F2D12119AE570E0
:100066001245D801643103B73400913F0550410968
:10007600EA430172460EF448016B4D06A450067F12
:10008600520A7F5306605700000F6CE4F5C775C629
:100096000212466C7F0A124E8D7F4D124E8D7F45A1
:1000A60012151D7F31124E8D7F30124E8D7F381204
:1000B60014AF7F23124E8D756B01E56B24FE601124
:1000C6001460182402701C85BC6DAF6D124F0F8032
:1000D6001285BD6DAF6D124F0F800885BE6DAF6D79
:1000E600124F0F056BE56BC3940440CE7F20124E72
:1000F6008DE4F5C775C60412466C7F20124E8D7FBF
:100106006C124E8D7F6F124E8D7F61124E8D7F6405
:100116001215257F641214AF756B01E56B24FE6022
:100126001214601714601E2403702285BC6D12150C
:1001360042801A85BD6D121542801285BE6DAF6D67
:10014600124F0F800885BF6DAF6D124F0F1246C953
:1001560040C97BFF7A16793C120006020054C2455C
:10016600D24B020054C245C24B0200541211FFE5A5
:100176007024BB606C24F370030202ED24FB700351
:1001860002022A241860030203B1E4F5C7FB7A00D1
:10019600796F124A21EF6043E4F571E571C3956FFB
:1001A6004003020054124669756B01E56B24FE603C
:1001B6000F14601114601324037012121333800D90
:1001C60012139180081213E880031214B71246C95D
:1001D60040D97F0A124E8D057180C0120F8F020022
:1001E600541211FFE57024B06012240F703075B9F7
:1001F60006E4F5C7F5C612466C0200541213F56004
:100206001712139E600C12474D75B90575B9040295
:100216000054120F8F020054120F98020054120F4E
:100226009802005412124EE57024B06061240E60EC
:10023600030202E71213F5604F12139E6044121573
:100246004C60391212AE602E12474D75B901E56B3E
:1002560024FE600F14601114601324037012856D60
:10026600BC800D856DBD8008856DBE8003856DBF24
:1002760012464C020054120FE3020054120FE3021E
:10028600005412102E02005412102E0200541214A2
:10029600CD6048121400603D12474D756B01121275
:1002A600AE6024E56B24FE600F1460111460132405
:1002B600037017856DBC8012856DBD800D856DBE82
:1002C6008008856DBF80031210371246C940CF12D1
:1002D600464C02005412103702005412104002001D
:1002E6005412104002005412124EE57024B060629F
:1002F600240E60030203AB1214CD6050121400608A
:100306004512154C603A124666E56B24FE601614DB
:10031600601C1460222403600302005485BC6D1225
:10032600141602005485BD6D12141602005485BEC3
:100336006D1214F402005485BF6D1214F4020054B9
:1003460012107F02005412107F020054121088020D
:1003560000547B007A007973124A21EF604112142F
:10036600D86036124666756B01E56BC3940540038B
:10037600020054E56B24FE600F1460111460132410
:10038600037012121333800D12139180081213E8B2
:1003960080031214B7056B80D01210880200541225
:1003A60010910200541210910200541210D702004C
:1003B60054121262E57024BC607324F0603B240280
:1003C600600302054A12155760297F0A124E8D9066
:1003D60046FF74021247087F521213B2124E8DE482
:1003E600F56BE56BC3957640030200541212EE05D9
:1003F6006B80EF1210D702005412156260297F0A33
:10040600124E8D9046FF74011247087F541213B2A4
:10041600124E8DE4F56BE56BC395754003020054EF
:100426001212EE056B80EF1210E00200547BFF7A89
:100436004079C21213C27F52124E8D7F4312143876
:10044600124E8D12155760089043FFE576F0800333
:100456001210E07BFF7A4079EF1213C27F54124EDE
:100466008D7F52121438124E8D121562600890421A
:10047600FFE575F0800312115D7BFF7A41791C124E
:1004860000067F45124E8D7F52124E8D7F52124EC0
:100496008D7F2012151D7F3E12128A60089041FF43
:1004A600E56DF0800312115D7BFF7A41794E1200F3
:1004B600069040FF742BF09010FFE4124713E4F50A
:1004C6006CF56BE56BC3957550201214E312128A16
:1004D60060089012FFE56DF08003121166E56D620B
:1004E6006C7F0A124E8D056B80D99012FFE56CF079
:1004F6007BFF7A417968120006AF6C124F0F7F0AB4
:10050600124E8D7BFF7A41797312152D124714E432
:10051600F56BE56BD3957550121214E3124E8D12DE
:1005260015137F0A124E8D056B80E77BFF7A4179A2
:100536008712152D9040FF746B1247139047FFE406
:10054600F00200541214A4020054D2447BFF7A41F4
:10055600799B1200062044030200547F41124E8DFF
:100566007F2D124E8D7F3E12119AE5701245D805E9
:10057600B831062A33061634063E3506104505F40C
:100586004D05DC4E05A552059453000006527BFF2F
:100596007A4179AA12000675EFBC75D80580B67B3C
:1005A600FF7A4179BD120006C24475EFBE75D805C3
:1005B60080A37F0A124E8D1246D6752A017F141229
:1005C6004F6F124B4E752A0212153A752A037F1584
:1005D60012148102055B7F0A124E8D752A01900165
:1005E600FF74011246D17F1412148102055B7F0A43
:1005F600124E8D752A029001FF74021246D1121511
:100606003A856FEF8570D802055B1214A402055B6C
:100616007BFF7A2279D9120006752A017F14124FC0
:100626006F02055B7BFF7A2279B3120006752A02F8
:100636007F13124F6F02055B7BFF7A2279FF120050
:1006460006752A037F15124F6F02055BC2447BFFB6
:100656007A2279A212000602055B1214D8601412DF
:1006660012E3600912463BE56DF002005412116672
:1006760002005412116F0200547B007A0079711245
:100686004A21EF601312463BE0F56D7F0A124E8D4C
:10069600AF6D124F0F02005412116F020054121266
:1006A60062E57024BB606E14605214606824FA60C0
:1006B6002E14601624FB605D146039241570537B7C
:1006C600FF7A1979A8120006804B752A019001FF5E
:1006D6007401F09008FFF075715A757714803675BD
:1006E6002A029001FF7402F09008FFF075715B75A5
:1006F60077138021752A03757715801974B22556EC
:10070600F9E4F568F569896AF56C756EFF75712807
:100716008003121178E57024BB700302098124FE60
:10072600700302092424FA70030207D51470030229
:1007360007D524FB70030208B41470030207C5240E
:100746000E60030209E412127FE570642D6009E56C
:1007560070642B6003020054E57024D5602F24FEDC
:10076600705712471BD3956C4014EFD3956E500704
:1007760074FF124518800CE56E12453A8005E56C4B
:1007860012453A12112B7F0A124E8D80BC12471B5E
:10079600C3956E5014EFC3956C400774011245184B
:1007A600800CE56C12453A8005E56E12453A121149
:1007B6002B7F0A124E8D02074F12117802074FD275
:1007C60044E5706454600302005412118180F2D231
:1007D6004412127FE570642D6027E570642B60215A
:1007E600E570642F601BE570642A6015E570643D52
:1007F600600FE57064466009E570644E60030200B0
:1008060054E57024D6604C14602824FC603724F22A
:10081600604D24F7607824F870030208A224216052
:10082600030208AE12463B7406F07F4612109A0287
:1008360007DA12463B7405F07F4E124E8D7F651225
:10084600109A0207DA12463B7402F07F46120FA195
:100856000207DA12463B1214FE120FA10207DA1241
:10086600463B7403F07F521215257F71124E8D7F21
:0908760075124E8D7F65124E8D46
:10087F007F73124E8D7F74124E8D7F20124E8D120C
:10088F0011810207DA12463B7402F07F46121049BB
:10089F000207DA12463B1214FE1210490207DA124F
:1008AF0011910207DA1212A124AE70631212C2E57F
:1008BF0070642D6009E570642B6003020054E570CD
:1008CF0024D5602024FE704112469312469A400AA6
:1008DF0012465608E616187001161211B17F0A1249
:1008EF004E8D80CB124693F9C3E7946C19E7648061
:1008FF009482500A1246560806E618700106121125
:10090F00B17F0A124E8D0208BE1211910208BE125B
:10091F0011A80200541212C2E570642D6009E5702F
:10092F00642B6003020054E57024D5602024FE7010
:10093F003B1246C212469A400A12465E08E6161845
:10094F007001161211D17F0A124E8D80CB1246C242
:10095F001247549483500A12465E0806E618700137
:10096F00061211D17F0A124E8D0209271211A80209
:10097F00092712140BE570642D6009E570642B6074
:10098F0003020054E57024D5602324FE7041E55620
:10099F0025E024BC12469A400A12468608E616182D
:1009AF007001161211E87F0A124E8D80C8E5562588
:1009BF00E024BC1247549481500A1246860806E67A
:1009CF00187001061211E87F0A124E8D0209841267
:1009DF0011BF0209841211BF0200541212A124ACDC
:1009EF00603E24FE6026240E6003020A791212E391
:1009FF0060149001FFE56DF0C394034003020054AF
:100A0F00856D560200541211C802005412131B6058
:100A1F00099008FFE56DF00200541211C80200544E
:100A2F0012131B603FE56D14601314601B146023D9
:100A3F002403702A9008FFE537F0020054E537448D
:100A4F00809008FFF0020054E53744209008FFF033
:100A5F00020054E53744A09008FFF0020054121131
:100A6F00DF0200541211DF0200541211F60200547B
:100A7F001212CD1245D80C08230AB33F0B5D410B60
:100A8F0030430ABF440DD2450D4A460D62470C4410
:100A9F004C0CB74D0BA14E0E3A530C84540D1E57F0
:100AAF0000000EEE7BFF7A1E7999120006020054A9
:100ABF001246E775BC2275BD0875BE9212464A12E2
:100ACF0046DE75BC1675BD1575BEAA12464AF5C72A
:100ADF0075C60275B90175BC1075BD7675BE051268
:100AEF00464A78AC762278AB761678AAF6F5C775B3
:100AFF00C60375B90175BC80F5BDF5BE12464A78BF
:100B0F008FA6BC7891A6BDF5C775C60475B90175DA
:100B1F00BC0375BD0875BE2075BF1212464C02008E
:100B2F00541213496022E56DC39403500F9001FFD7
:100B3F00E56DF09008FFF0F5560200547BFF7A4107
:100B4F0079CF1200060200541211F602005412124D
:100B5F00CD24BD601C24F470331246F01246A61249
:100B6F0047261246A612473112120A12156D0200BD
:100B7F0054124DF5124726124E00124731124E00F5
:100B8F0012136312150912156D0200541212450249
:100B9F00005412132624BD601A24FE603B24FC600F
:100BAF002024FA704E9008FF7401120FEC121303F9
:100BBF000200549008FF74011210E912130302008F
:100BCF0054121349600C1246E7856DBC12464C0255
:100BDF0000541212450200541213D460101246E74B
:100BEF00856DBF12464C78AAA66D02005412125999
:100BFF00020054121259020054E4F5C775C602756B
:100C0F006B011213D4601CE56B24FE600C14600E94
:100C1F0024027012856DBC800D856DBD8008856DB9
:100C2F00BE800312126D056BE56BC3940440D312A3
:100C3F00464C020054E4F5C775C604756B011214D7
:100C4F00436024E56B24FE600F14601114601324BD
:100C5F00037017856DBC8012856DBD800D856DBECF
:100C6F008008856DBF800312126D1246C940CF12E6
:100C7F00464C020054E4F5C775C603756B01121498
:100C8F00436013E56B24FE600804700D856DBC8016
:100C9F0008856DBD8003121276056BE56BC3940357
:100CAF0040DC12464C02005412132624BD601A2455
:100CBF00FE603B24FC602024FA704E9008FF740203
:100CCF00120FEC1213540200549008FF740212100A
:100CDF00E9121354020054121577600C1246DD8589
:100CEF006DBC12464C0200541212760200541215BB
:100CFF007760101246DD856DBF12464C78AAA66D3F
:100D0F000200541212980200541212980200541248
:100D1F00138424BD601024F4701B1246F012120AC3
:100D2F00121420020054124DF512136312150912FA
:100D3F0014200200541212B90200547B007A007979
:100D4F002D124A21EF6006124C5D0200541212B9A7
:100D5F0002005412138424AA70631246B624C112DF
:100D6F00142F60531246B624C212142F604312463A
:100D7F005EE6FE08E6FFC394B0EE648094814024E3
:100D8F00D3EF94FFEE64809483500B124F287F0AA9
:100D9F00124E8D02005412465E76030876FF12142F
:100DAF004E02005412465EE4F608F612144E02008C
:100DBF00541212DA0200541212DA020054121312F1
:100DCF0002005412140BE57024AA70591246B6246F
:100DDF00BB1214C460491246B624BC1214C4603945
:100DEF001246861246FC4024D3EF94FFEE648094A3
:100DFF0081500B1243AE7F0A124E8D0200541246E1
:100E0F008676010876FF12145F020054124686E4BC
:100E1F00F608F612145F0200541213120200541255
:100E2F00134002005412134002005412148E24AEC9
:100E3F006003020EE812148E24B4606A24F6600375
:100E4F00020EE21246B624B5F9E4FAFB124A21EF7C
:100E5F00604E1246B624B6F9E4FAFB124A21EF604F
:100E6F00391246561246FC4024D3EF946CEE648040
:100E7F009482500B124F407F0A124E8D0200541273
:100E8F004656760208766C121470020054124656BB
:100E9F00E4F608F61214700200541213A90200545B
:100EAF001213A90200547B007A00792F124A21EF06
:100EBF00601B7B007A007930124A21EF6006124DD9
:100ECF002B020054752F0275306C0200541213DF81
:100EDF000200541213DF02005412149B020054122A
:100EEF00149B020054124F838F70124F588F70E56E
:100EFF007024BC603324F7705E901AFF7401F0C247
:100F0F0030E4FFFEEF1F70011E144E6009901AFFB0
:100F1F00E0F5263030EE3030030200547BFF7A22AA
:100F2F00797D1200060200549014FF7401F09010A6
:100F3F00FF74FFF0FB7A427947120006E4F56B90DD
:100F4F0013FFE0F56DFF124F0F1215137F20124E96
:100F5F008DD56BEB020054121582020054121582CC
:100F6F000200549001FFE4F0901AFF04F09001FF8B
:0F0F7F00F0901AFFF09001FF04F0901AFF14F0A9
:100F8E00227BFF7A2279740200067BFF7A22797423
:100F9E00020006124E8D7F61124E8D7F72124E8DA3
:100FAE007F51124E8D7F20124E8DAF77124F6F7F75
:100FBE00FF7E3F7D007C00124DBFAB78AA79A97AE7
:100FCE0012454CF58285F083E4F0124F838F701238
:100FDE004F588F70227BFF7A227974020006F090B0
:100FEE0001FFF07D04AFA3124E0D9058FF7402F076
:100FFE00AFA3124E0DE0F5707F0A124E8D7F461292
:10100E004E8D7F69124E8D7F6C124E8D7F74124EF7
:10101E008D7F65124E8D7F72124E8D7F73024E8DB7
:10102E007BFF7A2279740200067BFF7A22797402A2
:10103E0000067BFF7A227974020006124E8D7F61C4
:10104E00124E8D7F72124E8D7F43124E8D7F6F1218
:10105E004E8D7F6E124E8D7F74124E8D7F20124EEE
:10106E008DAF77124F6F124F838F70124F588F7054
:10107E00227BFF7A2279740200067BFF7A22797432
:10108E000200067BFF7A227974020006124E8D7FD3
:10109E0061124E8D7F72124E8D7F20124E8DAF7764
:1010AE00124F6F7FFF7E037D007C00124DBFAB7829
:1010BE00AA79A97A12454CF58285F083E4F0124F95
:1010CE00838F70124F588F70227BFF7A22797402B1
:1010DE0000067BFF7A227974020006F09001FFF081
:1010EE007D04AFA3124E0D9058FF7401F0AFA31202
:1010FE004E0DE0F5707F0A124E8D7F46124E8D7F9B
:10110E0069124E8D7F6C124E8D7F74124E8D7F65DF
:10111E00124E8D7F72124E8D7F73024E8DAB68AA6A
:10112E0069A96A1244FFFF124F0FAB68AA69A96A38
:10113E001244FFFFAB78AA79A97A12454CF5828545
:10114E00F083EFF0124F838F70124F588F70227B07
:10115E00FF7A2279740200067BFF7A2279740200EC
:10116E00067BFF7A2279740200067BFF7A2279745D
:10117E00020006AF77124F6F124F838F70124F58C7
:10118E008F70227BFF7A227974020006124E8D1226
:10119E004F838F70124F588F70227BFF7A22797493
:1011AE00020006124F40124F838F70124F588F70ED
:1011BE00227BFF7A2279740200067BFF7A227974F1
:1011CE00020006124F28124F838F70124F588F70E5
:1011DE00227BFF7A2279740200061243AE124F83ED
:1011EE008F70124F588F70227BFF7A227974020013
:1011FE0006124F838F70124F588F7022AFA3124E6C
:10120E000D9058FF7402F0AFA3124E0DE0F5707FF3
:10121E000A124E8D7F46124E8D7F69124E8D7F6C57
:10122E00124E8D7F74124E8D7F65124E8D7F72120F
:10123E004E8D7F73024E8D7BFF7A227974020006EB
:10124E00124F838F70124F588F70227BFF7A227944
:10125E0074020006124F838F70124F588F70227BCC
:10126E00FF7A2279740200067BFF7A2279740200DB
:10127E0006124F838F70124F588F7022124E8D7B35
:10128E00007A00796D124A21EF227BFF7A2279745F
:10129E00020006124F838F70124F588F70E5702226
:1012AE007B007A00796D124A21EF227BFF7A227938
:1012BE0074020006124F838F70124F588F702212D5
:1012CE004F838F70124F588F70E570227BFF7A22FA
:1012DE0079740200067B007A00796D124A21EF22A2
:1012EE009040FFE0F56D9012FFE0F56DFF124F0F8D
:1012FE007F20024E8D7F01124F0F7F3A124E8DAF1F
:10130E0070024F0F7BFF7A2279740200067B007AFF
:10131E0000796D124A21EF22124F838F70124F58AF
:10132E008F70E5702285BC6DAF6D124F0F7F20025E
:10133E004E8D7BFF7A2279740200067B007A00794B
:10134E006D124A21EF227F02124F0F7F3A124E8DFD
:10135E00AF70024F0FE0F5707F0A124E8D7F46126E
:10136E004E8D7F69124E8D7F6C124E8D7F74124E94
:10137E008D7F65024E8D124F838F70124F588F7076
:10138E00E5702285BD6DAF6D124F0F7F20024E8D21
:10139E007B007A007971124A21EF227BFF7A227943
:1013AE0074020006124E8D7F58124E8D7F2D124EF6
:1013BE008D7F3E221200067F52124E8D7F53124EAB
:1013CE008D7F20024E8D7B007A00796D124A21EFBF
:1013DE00227BFF7A22797402000685BE6DAF6D12F4
:1013EE004F0F7F20024E8D7B007A007973124A21B7
:1013FE00EF227B007A007971124A21EF22124F837D
:10140E008F70124F588F70227F20124E8DAF6D024B
:10141E004F0FE4FF124F0F7F3A124E8DAF70024FF7
:10142E000FF9E4FAFB124A21EF22124E8D7F2D1294
:10143E004E8D7F3E227B007A00796D124A21EF227B
:10144E007BFF7A4179F8120006124F287F0A024E6E
:10145E008D7BFF7A4279121200061243AE7F0A028A
:10146E004E8D7BFF7A42792D120006124F407F0A75
:10147E00024E8D124F6F124B4E856FEF8570D82234
:10148E00124F838F70124F588F70E570227BFF7A48
:10149E00227974020006C2447BFF7A2279A20200EE
:1014AE0006124E8D7F20024E8D85BF6DAF6D124F91
:1014BE000F7F20024E8DF9E4FAFB124A21EF227BB8
:1014CE00007A007973124A21EF227B007A0079713B
:1014DE00124A21EF227BFF7A417962120006AF6B2E
:1014EE00124F0F7F3D227F20124E8DAF6D024F0F98
:1014FE007401F07F4E124E8D7F65227F72124E8DDB
:10150E007F73024E8D9012FFE0F56DFF024F0F12AA
:10151E004E8D7F2D024E8D124E8D7F65024E8D1299
:10152E0000069014FFE4F09010FFF0227F13124F8C
:10153E006F024B4EAF6D124F0F7F2E024E8D7B0002
:10154E007A00796B124A21EF227B007A00797612AB
:10155E004A21EF227B007A007975124A21EF227F11
:10156E003A124E8DAF70024F0F7B007A00796D12DA
:0D157E004A21EF227BFF7A227974020006D9
:10235200003650FF002651FF001652FF000E53FFB9
:1023620000CE54FF00000101B000000101B50000E1
:102372000101BA00000101BF00000101C400000117
:1023820001C900000101CE00000101D300000101DA
:10239200D800000101DD00000101E100000101E5BA
:1023A20000000101E900000101ED00000101F1005E
:1023B200000101F500000101F900000101FD00002A
:1023C2000102000000010207000001020E000001EC
:1023D2000215000001021C0000010223000001029C
:1023E2002A00000201B400000201B900000201BE8D
:1023F20000000201C300000201C800000201CD007A
:10240200000201D200000201D700000201DC00003C
:102412000201E000000201E400000201E800000203
:1024220001EC00000201F000000301B20000030110
:10243200B700000301BC00000301C100000301C694
:1024420000000301CB00000301D000000301D5000E
:10245200000301DA00000301DF00000401B3000001
:102462000401B800000401BD00000401C200000420
:1024720001C700000401CC00000401D100000401E6
:10248200D600000501B400000501B900000501BE37
:1024920000000501C300000501C800000501CD00D0
:1024A200000601B200000601B700000601BC0000F0
:1024B2000601C100000601C600000601CB000007AC
:1024C20001B500000701BA00000701BF00000701C3
:1024D200C400000801B100000801B600000801BBF9
:1024E20000000801C000000801C500000901B50094
:1024F200000901BA00000901BF00000A01B1000091
:102502000A01B600000A01BB00000A01C000000B6C
:1025120001B400000B01B900000B01BE00000C0168
:10252200B300000C01B800000C01BD00000D01B4A5
:1025320000000D01B900000E01B100000E01B6004D
:10254200000E01BB00000F01B400000F01B9000032
:102552001001B200001001B700001101B10000111A
:1025620001B600001201B100001201B60000130111
:10257200B100001301B600001401B200001401B74B
:1025820000001501B300001501B800001601B500E6
:10259200001701B200001701B700001801B40000D3
:1025A2001901B200001A01B000001A01B500001BA7
:1025B20001B300001C01B200001D01B100001E01A8
:1025C200B000001E01B500001F01B400002001B3DD
:1025D20000002101B300002201B300002301B30077
:1025E200002401B300002501B300002601B300005E
:1025F2002701B400002801B500002A01B100002B18
:1026020001B200002C01B300002D01B400002F0123
:10261200B100003001B200003101B400003301B258
:1026220000003401B400003601B200003701B400EA
:10263200003901B300003B01B200003D01B10000CE
:102642003E01B300004001B200004201B20000446A
:1026520001B200004601B200004801B200004A0186
:10266200B200004C01B200004E01B300005101B1B2
:1026720000005301B200005501B300005801B2003E
:10268200005B01B100005D01B200006001B1000019
:102692006201B300006501B300006901B100006C82
:1026A20001B100006F01B100007201B100007501BB
:1026B200B200007901B100007C01B200008001B1DA
:1026C20000008301B200008701B200008B01B2005A
:1026D200008F01B200009301B200009801B1000026
:1026E2009C01B20000A101B10000A501B20000AA44
:1026F20001B20000AF01B20000B501B10000BA01A1
:10270200B10000BF01B10000C401B20000CA01B2B1
:102712000000D101B10000D701B10000DD01B1001C
:1027220000E301B10000E901B20000F101B10000D3
:10273200F801B10000FF01B100010601B100010D75
:1027420001B100011401B200011D01B10001250116
:10275200B100012D01B100013501B100013E01B10D
:1027620000014701B100015001B100015901B1005E
:10277200016301B100016D01B100017701B10001F6
:102782008101B100018C01B100019701B10001A2E8
:1027920001B10001AE01B10001BA01B10001C601EF
:1027A200B10001D301B10001E001B10001EE01B1BC
:1027B2000001FC01B100020A01B100021901B100DD
:1027C200022801B100023801B100024801B1000241
:1027D2005901B100026A01B100026C01B600026C3B
:1027E20001BB00026C01C000026C01C500026C0159
:1027F200CA00026C01CF00026C01D400026C01D944
:1028020000026C01DE00026C01E200026C01E600D3
:10281200026C01EA00026C01EE00026C01F200029D
:102822006C01F600026C01FA00026C01FE00026CFF
:10283200020200026C020900026C021000026C0229
:102842001700026C021E00026C022500026C022CB0
:1028520000026C023300026C023A00026C02410078
:10286200026C024800026C024F00026C0256000227
:102872006C025D00026C026400026C026B00026C6E
:10288200027200026C027900026C028000026C0289
:102892008700026C028E00026C029500026C029CA0
:1028A20000026C02A300026C02AA00026C02B100D8
:1028B200026C02B800026C02BF00026C02C6000287
:1028C2006C02CD00026C02D400026C02DB00026CCE
:1028D20002E200026C02E900026C02F000026C02E9
:1028E200F700026C02FE01026C025A01026C0261E4
:1028F20001026C026801026C026F01026C02760135
:10290200026C027D01026C028401026C028B0102E4
:102912006C029201026C029901026C02A001026C2B
:1029220002A701026C02AE01026C02B501026C0246
:10293200BC01026C02C301026C02CA01026C02D128
:1029420001026C02D801026C02DF01026C02E60194
:10295200026C02ED01026C02F401026C02FB020243
:102962006C029E02026C02A502026C02AC02026CB4
:1029720002B302026C02BA02026C02C102026C02CF
:10298200C802026C02CF02026C02D602026C02DDA5
:1029920002026C02E402026C02EB02026C02F2021C
:1029A200026C02F902026C030003026C02C0030211
:1029B2006C02C703026C02CE03026C02D503026CE6
:1029C20002DC03026C02E303026C02EA03026C0201
:1029D200F103026C02F803026C02FF03026C0306AD
:1029E20004026C02D604026C02DD04026C02E404EE
:1029F200026C02EB04026C02F204026C02F90402A1
:102A02006C030005026C02DA05026C02E105026C3D
:102A120002E805026C02EF05026C02F605026C0286
:102A2200FD05026C030406026C02E506026C02EC70
:102A320006026C02F306026C02FA06026C0301073C
:102A4200026C02E707026C02EE07026C02F5070253
:102A52006C02FC07026C030308026C02ED08026CB4
:102A620002F408026C02FB08026C030209026C0207
:102A7200EF09026C02F609026C02FD09026C030402
:102A82000A026C02F40A026C02FB0A026C03020BD9
:102A9200026C02F40B026C02FB0B026C03020C02CE
:102AA2006C02F50C026C02FC0C026C03030D026C4E
:102AB20002F80D026C02FF0D026C03060E026C029C
:102AC200FC0E026C03030F026C02FA0F026C03018C
:102AD20010026C02F910026C030011026C02F9116F
:102AE200026C030012026C02FA12026C030113025E
:102AF2006C02FB13026C030214026C02FD14026CE2
:102B0200030415026C030016026C02FC16026C032D
:102B12000317026C030018026C02FD18026C030416
:102B220019026C03011A026C02FF1A026C03061BE3
:102B3200026C03041C026C03021D026C03011E02E0
:102B42006C03001F026C02FF1F026C030620026C62
:102B5200030621026C030622026C030623026C03A5
:102B62000624026C030626026C030027026C030192
:102B720028026C030229026C03032A026C03042B51
:102B8200026C03052D026C03012E026C03032F025B
:102B92006C030531026C030232026C030434026CD2
:102BA200030235026C030437026C030239026C0320
:102BB200003A026C03033C026C03023E026C030106
:102BC20040026C030041026C030343026C030345A1
:102BD200026C030347026C03034A026C03004C02BB
:102BE2006C03014E026C030250026C030353026C2D
:102BF200030155026C030258026C03015A026C0372
:102C0200035D026C030260026C030163026C030148
:102C120066026C030169026C03016C026C03016FB2
:102C2200026C030172026C030276026C03017902E8
:102C32006C03027D026C030181026C030084026C4E
:102C4200030188026C03018C026C030190026C0385
:102C52000194026C030198026C03029D026C030151
:102C6200A2026C0300A6026C0301AB026C0301B06A
:102C7200026C0301B5026C0301BB026C0300C002CB
:102C82006C0301C6026C0301CC026C0301D2026C1C
:102C92000301D9026C0300DF026C0300E5026C033E
:102CA20001EC026C0301F3026C0301FA026C0301F2
:102CB200FA026C0308FA026C030FFA026C0316FAAA
:102CC200026C031DFA026C0324FA026C032BFA0253
:102CD2006C0332FA026C0339FA026C0340FA026C9A
:102CE2000347FA026C034EFA026C0355FA026C03B4
:102CF2005CFA026C0363FA026C036AFA026C0371F7
:102D0200FA026C0378FA026C037FFA026C0386FA09
:102D1200026C038DFA026C0394FA026C039BFA02B2
:102D22006C03A2FA026C03A9FA026C03B0FA026CF9
:102D320003B7FA026C03BEFA026C03C5FA026C0313
:102D4200CCFA026C03D3FA026C03DAFA026C03E1E6
:102D5200FA026C03E8FA026C03EFFA026C03F6FA69
:102D6200026C03FD5F5F534C4743403D3B393735AF
:102D7200343231302F2E2D2C2B2A29282827262693
:102D820025242423232222212120201F1F1E1E1E30
:102D92001D1D1C1C1C1B1B1B1A1A1A191919181889
:102DA20018181717171616161615151515141414C4
:102DB20014131313131312121212121111111111EF
:102DC20010101010100F0F0F0F0F0F0E0E0E0E0E11
:102DD2000E0D0D0D0D0D0D0D0C0C0C0C0C0C0C0B29
:102DE2000B0B0B0B0B0B0A0A0A0A0A0A0A0909093E
:102DF200090909090909080808080808080807074D
:102E02000707070707070706060606060606060659
:102E12000605050505050505050505040404040464
:102E2200040404040404030303030303030303036A
:102E32000302020202020202020202020202010171
:102E42000101010101010101010100000000000076
:102E5200000000FFFFFFFFFFFFFFFFFFFFFFFFFE7E
:102E6200FEFEFEFE7F7F7F7F78716A65605C59554A
:102E7200524F4D4A48464442403F3D3C3A3937362C
:102E820035343231302F2E2D2C2B2A292828272673
:102E920025242423222121201F1F1E1D1D1C1C1B33
:102EA2001A1A1919181817161615151414141313BB
:102EB2001212111110100F0F0F0E0E0D0D0D0C0C22
:102EC2000B0B0B0A0A0A0909090808080707070673
:102ED20006060505050404040303030302020201B6
:102EE20001010100000000000000FFFFFFFFFEFEE5
:102EF200FEFEFDFDFDFDFCFCFCFCFBFBFBFBFBFA0F
:102F0200FAFAFAF9F9F9F9F9F8F8F8F8F8F7F7F737
:102F1200F7F7F6F6F6F6F6F5F5F5F5F5F4F4F4F45A
:102F2200F4F3F3F3F3F3F3F2F2F2F2F2F1F1F1F17B
:102F3200F1F1F0F0F0F0F0F0EFEFEFEFEFEFEFEE96
:102F4200EEEEEEEEEEEDEDEDEDEDEDECECECECECAF
:102F5200ECECEBEBEBEBEBEBEBEAEAEAEAEAEAEAC4
:102F6200E9E0C0800D0C0B0A0909080706050403F5
:102F720003020100FFFFFEFDFCFCFBFAF9F9F8F782
:102F8200F7F6F5F4F4F3F2F12A2827262423212078
:102F92001F1D1C1A191816151412110F0E0D0B0AEB
:102FA20008070604030100FFFEFCFBFAF9F8F6F538
:102FB200F4F3F2F1EFEEEDECEBE9E8E7E6E5E3E25C
:0F2FC200E1E0DFDEDCDBDAD9D8D6D5D4D3D2D04C
:1049230006B501F401F401F406C101B001B001B010
:1049330003B200000006BB00960096009604120026
:0349430022160039
:104E5C00E4FEC374509FFFC313FED3944640027EFE
:104E6C0046EE902F8A9378AC26F513EEC313FED33F
:104E7C00942340027E23EE902F669378AB26F51494
:014E8C002203
:1049460002100000040C0000000004080000000033
:104EB4009013FFE0F5689012FFE0F56922E4F5A194
:104EC400F5A2F5A375A109229001FFE569F09058B8
:024ED400FF22BB
:104BD700E4F510F511F50FF50EF50DF50CF50BF5E0
:104BE7000AF509F508C2A89014FF04F0F5439010E0
:104BF700FF74FFF0E4F516FB124EB42511F511E52D
:104C0700683510F51030D7031B800F1BEB600BC303
:104C1700E51194F0E510942D40DE8B16E4FBE511C9
:104C2700F47003E510F47020124EB4FFE4FCFDE5C8
:104C37000F2FF50FE50E3568F50EED350DF50DEC7B
:104C4700350CF50CDBE2800BE485110F85100EF5B2
:054C57000DF50CD2A8D0
:014C5C002235
:074FB3009080FFE0F51722DA
:10364F00D2399058FFE0F5687F0A1239DE7F721287
:10365F004E8D7F73123A487F53124E8D7F74123AFC
:10366F00507F74123A58123A3630E30B12380E125A
:10367F0039FA7F6E124E8DE56830E50B12387212F3
:10368F0039FA7F6E124E8DE56830E10B1238D61283
:10369F0039C57F6E124E8DE4F569124ECC7401F070
:1036AF000569E569B403F3124EC1E5A3C394024063
:1036BF00F912397E123A36642A6002C239E568304F
:1036CF00E30B12380E123A277F6E124E8DE56830DB
:1036DF00E50B123872123A277F6E124E8DE5683065
:1036EF00E10B1238D61239C57F6E124E8DE4F56993
:1036FF00124ECC7402F00569E569B403F3124EC1A2
:10370F00E5A3C3940240F912397E7F73124E8D7F69
:10371F003D124E8DAF68124F0FE56830E212123A2C
:10372F00097F36123A487F28124E8D7F4E1239305C
:10373F00E56830E412123A097F35123A607F281299
:10374F004E8D7F4D123930E56830E05A7F0A124EA8
:10375F008D7F4D124E8D7F45124E8D7F2D124E8DCA
:10376F007F31124E8D7F30124E8D7F34123A607F33
:10377F0028124E8D7F57124E8D7F46124E8D7F2908
:10378F00124E8D7F201239DE7F72124E8D7F2012E6
:10379F004E8D7F63124E8D7F6C124E8D7F6F124E4A
:1037AF008D7F73123A58E56864156002C23930395B
:1037BF004B7F0A124E8D7F0A124E8D7F43123A5065
:1037CF007F6D124E8D7F65124E8D7F72124E8D7FE3
:1037DF0061124E8D7F20124E8D7F72124E8D7F653E
:1037EF00124E8D7F61124E8D7F64124E8D7F791236
:0E37FF004E8D7F2E124E8D7F0A124E8DA239F6
:10380D00227F0A124E8D7F4D124E8D7F45124E8DA9
:10381D007F2D124E8D7F31124E8D7F30124E8D7F4A
:10382D0036124E8D7F20124E8D7F28124E8D7F4E7B
:10383D00124E8D7F46124E8D7F29124E8D7F201296
:10384D004E8D7F46124E8D7F69124E8D7F6C124EBE
:10385D008D7F74124E8D7F65124E8D7F72124E8D3F
:10386D007F20024E8D7F0A124E8D7F4D124E8D7F21
:10387D0045124E8D7F2D124E8D7F31124E8D7F3024
:10388D00124E8D7F35124E8D7F20124E8D7F281258
:10389D004E8D7F4D124E8D7F46124E8D7F29124ECD
:1038AD008D7F20124E8D7F46124E8D7F69124E8D6B
:1038BD007F6C124E8D7F74124E8D7F65124E8D7FF3
:1038CD0072124E8D7F20024E8D7F0A124E8D7F4DCE
:1038DD00124E8D7F45124E8D7F2D124E8D7F3112E2
:1038ED004E8D7F30124E8D7F34124E8D7F20124EB5
:1038FD008D7F28124E8D7F57124E8D7F46124E8D25
:10390D007F29124E8D7F20124E8D7F46124E8D7F58
:10391D0069124E8D7F6C124E8D7F74124E8D7F65A8
:10392D00024E8D124E8D7F46124E8D7F29124E8D79
:10393D007F20124E8D7F46124E8D7F69124E8D7FE8
:10394D006C124E8D7F74124E8D7F65124E8D7F726F
:10395D00124E8D7F20124E8D7F63124E8D7F6C1215
:10396D004E8D7F6F124E8D7F73124E8D7F65024E81
:10397D008D9058FFE0F5687F0A124E8D7F46124EEE
:10398D008D7F69124E8D7F6C124E8D7F65124E8D1F
:10399D007F72124E8D7F73124E8D7F20124E8D7F52
:1039AD0053124E8D7F74124E8D7F61124E8D7F742A
:1039BD00124E8D7F65024E8D7F72124E8D7F2012BD
:1039CD004E8D7F6F124E8D7F70124E8D7F65024E24
:1039DD008D124E8D7F46124E8D7F69124E8D7F6CEE
:1039ED00124E8D7F74124E8D7F65024E8D7F6F123C
:1039FD004E8D7F70124E8D7F65024E8D7F0A124E59
:103A0D008D7F4D124E8D7F45124E8D7F2D124E8D19
:103A1D007F31124E8D7F30024E8D7F6F124E8D7F16
:103A2D0070124E8D7F65024E8D7F73124E8D7F3DD0
:103A3D00124E8DAF68124F0FE56822124E8D7F200A
:103A4D00024E8D124E8D7F61024E8D124E8D7F6511
:0B3A5D00024E8D124E8D7F20024E8D18
:03000000024AC2EF
:0C4AC200787FE4F6D8FD7581C6024B0930
:1044FF00BB010689828A83E0225002E722BBFE02BB
:09450F00E32289828A83E49322ED
:10451800BB010989828A83F8E028F022500327F733
:1045280022BBFE05F8E328F3228A838982F8E49304
:02453800282237
:10453A00BB010689828A83F0225002F722BBFE0160
:02454A00F3225A
:10454C00BB010A89828A83E0F5F0A3E0225006873A
:10455C00F009E71922BBFE07E3F5F009E3192289FC
:0B456C00828A83E493F5F0740193222F
:10457700EB9FF5F0EA9E42F0E99D42F0E89C45F09A
:014587002211
:10458800E8600FEFC333FFEE33FEED33FDEC33FC91
:03459800D8F12235
:0C459B00E6FC08E6FD08E6FE08E6FF224C
:0C45A700ECF608EDF608EEF608EFF62240
:1045B300D083D082E493F608740193F608740293CF
:0945C300F608740393F674047306
:0C45CC00A42582F582E5F03583F58322FA
:1045D800D083D082F8E4937012740193700DA3A372
:1045E80093F8740193F5828883E473740293686086
:0645F800EFA3A3A380DF86
:104E8D00EFB40A07740D124E98740A309811A89950
:104E9D00B8130CC2983098FDA899C298B811F63085
:074EAD0099FDC299F599225D
:103A6800E577246BF8E60577227868304002786BB2
:103A7800E475F00112462B0244FF2039EB7F2ED269
:103A8800398018EF540F2490D43440D4FF303D0BC4
:103A9800EF24BFB41A0050032461FFE578600215D3
:103AA80078057BE57B7002057A30400D7868E4750F
:103AB800F00112462BEF02453A024E8D7403D240B4
:103AC8008003E4C240F5778B688A69896AE4F578EF
:103AD800F57AF57BE57860077F20123AA380F575C3
:103AE80079FFC23AC239C23BC23CC23EC23FC24160
:103AF800123A71FF700D3040057F00123AB4AF7B67
:103B0800AE7A22B4255FC2D5C23D123A71FF24D0E5
:103B1800B40A00501A75F00A787830D50508B6FF4F
:103B28000106C6A426F620D5047002D23C80D9240A
:103B3800CFB41A00EF5004C2E5D23D023CB4D23AE9
:103B480080C6D23980C0D23B80BCD2D580BAD23EA2
:103B580080B47F20123AA3203B077401B578004057
:103B6800F1123A68FF123AA3023ADCD241D23F80FE
:103B780095123A68FB123A68FA123A68F94A4B7099
:103B88000679857A3D7BFF203B2EE578602A7E000A
:103B98008E827583001245FE60060EEE657970F020
:103BA800C2D5EBC0E0EAC0E0E9C0E0EE123CFBD0D1
:103BB800E0F9D0E0FAD0E0FB1244FFFF60AAEBC0C6
:103BC800E0EAC0E0E9C0E0123AA3D0E02401F9D06D
:103BD800E03400FAD0E0FBE5790460DCD579D980DF
:103BE800877BFF7A3C79F7D23B809C7910800279F9
:103BF80008C23FC2418008D2D5790A8004790AC236
:103C0800D5E579047002F579E4FAFDFEFF123A6809
:103C1800FC7B08203A13123A68FD7B1030390A12EF
:103C28003A68FE123A68FF7B20EC3382D592D55071
:103C380013C3E43039069FFFE49EFEE4203A039D57
:103C4800FDE49CFCE4CBF8C23AEC700CCFCECDCCB2
:103C5800E824F8F870F38017C3EF33FFEE33FEED76
:103C680033FDEC33FCEB33FB994002FB0FD8E9EB57
:103C7800303A05F8D0E0C448B23AC0E00AEC4D4EFC
:103C88004F78207B0070C2EAB5790040BCC0E012D2
:103C98003CFDD0F0D0E0203A04C4C0E0C4B23AC041
:103CA800F0123A8CD0F0D5F0EB023ADC1245D83B52
:103CB80079533BF3583B4A4C3B46423BF74F3BFF5B
:103CC800443BFF493B5F433C05553BE9463BE945DF
:103CD8003BE9473DA5503B4E2D3B522E3B752B3BB8
:103CE80056233B73203D932A3B0E4800003B6D3F13
:103CF8003F3F00790AA2D5203C14303E09B9100292
:103D08000404B9080104A2D5203F02500104203B55
:053D180068923BB57844
:103D1D00005034C0E07F20303C197F30A23B723F11
:103D2D00723E500F123D54C23BC23FC23EC2417F54
:103D3D0030800F303E03E9C0E0123AA3303E03D08D
:103D4D00E0F9D0E0B578CC303E177F30B9100C12C9
:103D5D003AA37F58303D077F788003B90803123AA4
:103D6D00A3303B057F2D023AA37F202041F87F2B06
:103D7D00203FF322923B80CF286E756C6C29002D6D
:103D8D0050434958D23A123A68303AF8C23A7878E4
:103D9D0030D50108F6023B0E123A682403B4050033
:103DAD004001E4903D8C93123A94743A123A94D2B5
:073DBD003C757804023BF3A2
:100006001244FF601CFF09E970010AC0E0EAC0E083
:10001600EBC0E0124E8DD0E0FBD0E0FAD0E0F980E4
:0A002600DF7F0A124E8DE4FEFF2278
:104F8300104C0B124FA9BF0D027F0A024E8DAF18B2
:014F930022FB
:104F5800CEEFCEEEC39461400AEE947B5005EE246A
:074F6800E0FF22CFEECF2293
:104ACE00022FD1E493A3F8E493A34003F68001F2FE
:104ADE0008DFF48029E493A3F85407240CC8C333E9
:104AEE00C4540F4420C8834004F456800146F6DFB8
:104AFE00E4800B010204081020408090487CE47E84
:104B0E00019360BCA3FF543F30E509541FFEE493AC
:104B1E00A360010ECF54C025E060A840B8E493A373
:104B2E00FAE493A3F8E493A3C8C582C8CAC583CA9E
:104B3E00F0A3C8C582C8CAC583CADFE9DEE780BE56
:014956000060
:1045FE00BB010CE58229F582E5833AF583E0225072
:10460E0006E92582F8E622BBFE06E92582F8E222BB
:0D461E00E58229F582E5833AF583E49322D5
:10462B00FAE6FB0808E6F925F0F618E6CA3AF62290
:0A4FA9003098FDAF99C2987E0022F7
:00000001FF
